{
  "contractName": "Adoption",
  "abi": [
    {
      "constant": true,
      "inputs": [
        {
          "internalType": "uint256",
          "name": "",
          "type": "uint256"
        }
      ],
      "name": "adopters",
      "outputs": [
        {
          "internalType": "address",
          "name": "",
          "type": "address"
        }
      ],
      "payable": false,
      "stateMutability": "view",
      "type": "function"
    },
    {
      "constant": true,
      "inputs": [],
      "name": "getAdopter",
      "outputs": [
        {
          "internalType": "address[16]",
          "name": "",
          "type": "address[16]"
        }
      ],
      "payable": false,
      "stateMutability": "view",
      "type": "function"
    }
  ],
  "bytecode": "0x608060405234801561001057600080fd5b506101fb806100206000396000f3fe608060405234801561001057600080fd5b50600436106100365760003560e01c806343ae80d31461003b578063654486c8146100a9575b600080fd5b6100676004803603602081101561005157600080fd5b81019080803590602001909291905050506100ef565b604051808273ffffffffffffffffffffffffffffffffffffffff1673ffffffffffffffffffffffffffffffffffffffff16815260200191505060405180910390f35b6100b1610122565b6040518082601060200280838360005b838110156100dc5780820151818401526020810190506100c1565b5050505090500191505060405180910390f35b600081601081106100fc57fe5b016000915054906101000a900473ffffffffffffffffffffffffffffffffffffffff1681565b61012a6101a3565b6000601080602002604051908101604052809291908260108015610199576020028201915b8160009054906101000a900473ffffffffffffffffffffffffffffffffffffffff1673ffffffffffffffffffffffffffffffffffffffff168152602001906001019080831161014f575b5050505050905090565b60405180610200016040528060109060208202803883398082019150509050509056fea265627a7a72315820c51bd997c23da0282d097395600687487fab633b9fa4d4a9c607c00d03bc556d64736f6c63430005100032",
  "source": "pragma solidity ^0.5.0;\n\ncontract Adoption {\n    address[16] public adopters;\n\n    //Adopting a pet\n    function adopt(uint petId) private returns (uint) {\n        require(petId >= 0 && petId <= 15);\n\n        adopters[petId] = msg.sender;\n\n        return petId;\n    }\n\n    //Retrieving the adopters\n    function getAdopter() public view returns (address[16] memory) {\n        return adopters;\n    }\n    \n}",
  "sourcePath": "/Users/johnsag/Documents/dev/courses/BEW-2.4/pet-shop-ethereum/contracts/Adoption.sol",
  "compiler": {
    "name": "solc",
    "version": "0.5.16+commit.9c3226ce.Emscripten.clang"
  },
  "schemaVersion": "3.4.1",
  "updatedAt": "2021-06-28T08:46:01.410Z",
  "networkType": "ethereum",
  "devdoc": {
    "methods": {}
  },
  "userdoc": {
    "methods": {}
  }
}